{
  "_format": "hh-sol-artifact-1",
  "contractName": "GameScoreNFT",
  "sourceName": "contracts/GameScoreNFT.sol",
  "abi": [
    {
      "inputs": [],
      "stateMutability": "nonpayable",
      "type": "constructor"
    },
    {
      "inputs": [
        {
          "internalType": "address",
          "name": "sender",
          "type": "address"
        },
        {
          "internalType": "uint256",
          "name": "balance",
          "type": "uint256"
        },
        {
          "internalType": "uint256",
          "name": "needed",
          "type": "uint256"
        },
        {
          "internalType": "uint256",
          "name": "tokenId",
          "type": "uint256"
        }
      ],
      "name": "ERC1155InsufficientBalance",
      "type": "error"
    },
    {
      "inputs": [
        {
          "internalType": "address",
          "name": "approver",
          "type": "address"
        }
      ],
      "name": "ERC1155InvalidApprover",
      "type": "error"
    },
    {
      "inputs": [
        {
          "internalType": "uint256",
          "name": "idsLength",
          "type": "uint256"
        },
        {
          "internalType": "uint256",
          "name": "valuesLength",
          "type": "uint256"
        }
      ],
      "name": "ERC1155InvalidArrayLength",
      "type": "error"
    },
    {
      "inputs": [
        {
          "internalType": "address",
          "name": "operator",
          "type": "address"
        }
      ],
      "name": "ERC1155InvalidOperator",
      "type": "error"
    },
    {
      "inputs": [
        {
          "internalType": "address",
          "name": "receiver",
          "type": "address"
        }
      ],
      "name": "ERC1155InvalidReceiver",
      "type": "error"
    },
    {
      "inputs": [
        {
          "internalType": "address",
          "name": "sender",
          "type": "address"
        }
      ],
      "name": "ERC1155InvalidSender",
      "type": "error"
    },
    {
      "inputs": [
        {
          "internalType": "address",
          "name": "operator",
          "type": "address"
        },
        {
          "internalType": "address",
          "name": "owner",
          "type": "address"
        }
      ],
      "name": "ERC1155MissingApprovalForAll",
      "type": "error"
    },
    {
      "inputs": [
        {
          "internalType": "address",
          "name": "owner",
          "type": "address"
        }
      ],
      "name": "OwnableInvalidOwner",
      "type": "error"
    },
    {
      "inputs": [
        {
          "internalType": "address",
          "name": "account",
          "type": "address"
        }
      ],
      "name": "OwnableUnauthorizedAccount",
      "type": "error"
    },
    {
      "anonymous": false,
      "inputs": [
        {
          "indexed": true,
          "internalType": "address",
          "name": "account",
          "type": "address"
        },
        {
          "indexed": true,
          "internalType": "address",
          "name": "operator",
          "type": "address"
        },
        {
          "indexed": false,
          "internalType": "bool",
          "name": "approved",
          "type": "bool"
        }
      ],
      "name": "ApprovalForAll",
      "type": "event"
    },
    {
      "anonymous": false,
      "inputs": [
        {
          "indexed": true,
          "internalType": "address",
          "name": "previousOwner",
          "type": "address"
        },
        {
          "indexed": true,
          "internalType": "address",
          "name": "newOwner",
          "type": "address"
        }
      ],
      "name": "OwnershipTransferred",
      "type": "event"
    },
    {
      "anonymous": false,
      "inputs": [
        {
          "indexed": true,
          "internalType": "address",
          "name": "player",
          "type": "address"
        },
        {
          "indexed": true,
          "internalType": "uint256",
          "name": "score",
          "type": "uint256"
        },
        {
          "indexed": false,
          "internalType": "uint256",
          "name": "amount",
          "type": "uint256"
        }
      ],
      "name": "ScoreNFTMinted",
      "type": "event"
    },
    {
      "anonymous": false,
      "inputs": [
        {
          "indexed": true,
          "internalType": "address",
          "name": "operator",
          "type": "address"
        },
        {
          "indexed": true,
          "internalType": "address",
          "name": "from",
          "type": "address"
        },
        {
          "indexed": true,
          "internalType": "address",
          "name": "to",
          "type": "address"
        },
        {
          "indexed": false,
          "internalType": "uint256[]",
          "name": "ids",
          "type": "uint256[]"
        },
        {
          "indexed": false,
          "internalType": "uint256[]",
          "name": "values",
          "type": "uint256[]"
        }
      ],
      "name": "TransferBatch",
      "type": "event"
    },
    {
      "anonymous": false,
      "inputs": [
        {
          "indexed": true,
          "internalType": "address",
          "name": "operator",
          "type": "address"
        },
        {
          "indexed": true,
          "internalType": "address",
          "name": "from",
          "type": "address"
        },
        {
          "indexed": true,
          "internalType": "address",
          "name": "to",
          "type": "address"
        },
        {
          "indexed": false,
          "internalType": "uint256",
          "name": "id",
          "type": "uint256"
        },
        {
          "indexed": false,
          "internalType": "uint256",
          "name": "value",
          "type": "uint256"
        }
      ],
      "name": "TransferSingle",
      "type": "event"
    },
    {
      "anonymous": false,
      "inputs": [
        {
          "indexed": false,
          "internalType": "string",
          "name": "value",
          "type": "string"
        },
        {
          "indexed": true,
          "internalType": "uint256",
          "name": "id",
          "type": "uint256"
        }
      ],
      "name": "URI",
      "type": "event"
    },
    {
      "inputs": [],
      "name": "MAX_SCORE",
      "outputs": [
        {
          "internalType": "uint256",
          "name": "",
          "type": "uint256"
        }
      ],
      "stateMutability": "view",
      "type": "function"
    },
    {
      "inputs": [
        {
          "internalType": "address",
          "name": "account",
          "type": "address"
        },
        {
          "internalType": "uint256",
          "name": "id",
          "type": "uint256"
        }
      ],
      "name": "balanceOf",
      "outputs": [
        {
          "internalType": "uint256",
          "name": "",
          "type": "uint256"
        }
      ],
      "stateMutability": "view",
      "type": "function"
    },
    {
      "inputs": [
        {
          "internalType": "address[]",
          "name": "accounts",
          "type": "address[]"
        },
        {
          "internalType": "uint256[]",
          "name": "ids",
          "type": "uint256[]"
        }
      ],
      "name": "balanceOfBatch",
      "outputs": [
        {
          "internalType": "uint256[]",
          "name": "",
          "type": "uint256[]"
        }
      ],
      "stateMutability": "view",
      "type": "function"
    },
    {
      "inputs": [],
      "name": "getAllUserDetails",
      "outputs": [
        {
          "internalType": "address[]",
          "name": "users",
          "type": "address[]"
        },
        {
          "internalType": "uint256[]",
          "name": "totalCounts",
          "type": "uint256[]"
        },
        {
          "internalType": "uint256[][]",
          "name": "scores",
          "type": "uint256[][]"
        }
      ],
      "stateMutability": "view",
      "type": "function"
    },
    {
      "inputs": [],
      "name": "getMyScoreNFTs",
      "outputs": [
        {
          "internalType": "uint256[]",
          "name": "scores",
          "type": "uint256[]"
        },
        {
          "internalType": "uint256[]",
          "name": "balances",
          "type": "uint256[]"
        }
      ],
      "stateMutability": "view",
      "type": "function"
    },
    {
      "inputs": [
        {
          "internalType": "address",
          "name": "user",
          "type": "address"
        }
      ],
      "name": "getUserScores",
      "outputs": [
        {
          "internalType": "uint256[]",
          "name": "",
          "type": "uint256[]"
        }
      ],
      "stateMutability": "view",
      "type": "function"
    },
    {
      "inputs": [
        {
          "internalType": "address",
          "name": "account",
          "type": "address"
        },
        {
          "internalType": "address",
          "name": "operator",
          "type": "address"
        }
      ],
      "name": "isApprovedForAll",
      "outputs": [
        {
          "internalType": "bool",
          "name": "",
          "type": "bool"
        }
      ],
      "stateMutability": "view",
      "type": "function"
    },
    {
      "inputs": [
        {
          "internalType": "uint256",
          "name": "score",
          "type": "uint256"
        }
      ],
      "name": "mintGameScoreNFT",
      "outputs": [],
      "stateMutability": "nonpayable",
      "type": "function"
    },
    {
      "inputs": [],
      "name": "owner",
      "outputs": [
        {
          "internalType": "address",
          "name": "",
          "type": "address"
        }
      ],
      "stateMutability": "view",
      "type": "function"
    },
    {
      "inputs": [],
      "name": "renounceOwnership",
      "outputs": [],
      "stateMutability": "nonpayable",
      "type": "function"
    },
    {
      "inputs": [
        {
          "internalType": "address",
          "name": "from",
          "type": "address"
        },
        {
          "internalType": "address",
          "name": "to",
          "type": "address"
        },
        {
          "internalType": "uint256[]",
          "name": "ids",
          "type": "uint256[]"
        },
        {
          "internalType": "uint256[]",
          "name": "values",
          "type": "uint256[]"
        },
        {
          "internalType": "bytes",
          "name": "data",
          "type": "bytes"
        }
      ],
      "name": "safeBatchTransferFrom",
      "outputs": [],
      "stateMutability": "nonpayable",
      "type": "function"
    },
    {
      "inputs": [
        {
          "internalType": "address",
          "name": "from",
          "type": "address"
        },
        {
          "internalType": "address",
          "name": "to",
          "type": "address"
        },
        {
          "internalType": "uint256",
          "name": "id",
          "type": "uint256"
        },
        {
          "internalType": "uint256",
          "name": "value",
          "type": "uint256"
        },
        {
          "internalType": "bytes",
          "name": "data",
          "type": "bytes"
        }
      ],
      "name": "safeTransferFrom",
      "outputs": [],
      "stateMutability": "nonpayable",
      "type": "function"
    },
    {
      "inputs": [
        {
          "internalType": "address",
          "name": "operator",
          "type": "address"
        },
        {
          "internalType": "bool",
          "name": "approved",
          "type": "bool"
        }
      ],
      "name": "setApprovalForAll",
      "outputs": [],
      "stateMutability": "nonpayable",
      "type": "function"
    },
    {
      "inputs": [
        {
          "internalType": "bytes4",
          "name": "interfaceId",
          "type": "bytes4"
        }
      ],
      "name": "supportsInterface",
      "outputs": [
        {
          "internalType": "bool",
          "name": "",
          "type": "bool"
        }
      ],
      "stateMutability": "view",
      "type": "function"
    },
    {
      "inputs": [
        {
          "internalType": "uint256",
          "name": "",
          "type": "uint256"
        }
      ],
      "name": "totalMintedPerScore",
      "outputs": [
        {
          "internalType": "uint256",
          "name": "",
          "type": "uint256"
        }
      ],
      "stateMutability": "view",
      "type": "function"
    },
    {
      "inputs": [
        {
          "internalType": "address",
          "name": "newOwner",
          "type": "address"
        }
      ],
      "name": "transferOwnership",
      "outputs": [],
      "stateMutability": "nonpayable",
      "type": "function"
    },
    {
      "inputs": [
        {
          "internalType": "uint256",
          "name": "tokenId",
          "type": "uint256"
        }
      ],
      "name": "uri",
      "outputs": [
        {
          "internalType": "string",
          "name": "",
          "type": "string"
        }
      ],
      "stateMutability": "pure",
      "type": "function"
    },
    {
      "inputs": [
        {
          "internalType": "address",
          "name": "",
          "type": "address"
        },
        {
          "internalType": "uint256",
          "name": "",
          "type": "uint256"
        }
      ],
      "name": "userScoreNFTBalance",
      "outputs": [
        {
          "internalType": "uint256",
          "name": "",
          "type": "uint256"
        }
      ],
      "stateMutability": "view",
      "type": "function"
    },
    {
      "inputs": [
        {
          "internalType": "address",
          "name": "",
          "type": "address"
        }
      ],
      "name": "userTotalScore",
      "outputs": [
        {
          "internalType": "uint256",
          "name": "",
          "type": "uint256"
        }
      ],
      "stateMutability": "view",
      "type": "function"
    }
  ],
  "bytecode": "0x608060405234801561001057600080fd5b503360405180602001604052806000815250610031816100b960201b60201c565b50600073ffffffffffffffffffffffffffffffffffffffff168173ffffffffffffffffffffffffffffffffffffffff16036100a45760006040517f1e4fbdf700000000000000000000000000000000000000000000000000000000815260040161009b91906101d3565b60405180910390fd5b6100b3816100cc60201b60201c565b50610510565b80600290816100c8919061043e565b5050565b6000600360009054906101000a900473ffffffffffffffffffffffffffffffffffffffff16905081600360006101000a81548173ffffffffffffffffffffffffffffffffffffffff021916908373ffffffffffffffffffffffffffffffffffffffff1602179055508173ffffffffffffffffffffffffffffffffffffffff168173ffffffffffffffffffffffffffffffffffffffff167f8be0079c531659141344cd1fd0a4f28419497f9722a3daafe3b4186f6b6457e060405160405180910390a35050565b600073ffffffffffffffffffffffffffffffffffffffff82169050919050565b60006101bd82610192565b9050919050565b6101cd816101b2565b82525050565b60006020820190506101e860008301846101c4565b92915050565b600081519050919050565b7f4e487b7100000000000000000000000000000000000000000000000000000000600052604160045260246000fd5b7f4e487b7100000000000000000000000000000000000000000000000000000000600052602260045260246000fd5b6000600282049050600182168061026f57607f821691505b60208210810361028257610281610228565b5b50919050565b60008190508160005260206000209050919050565b60006020601f8301049050919050565b600082821b905092915050565b6000600883026102ea7fffffffffffffffffffffffffffffffffffffffffffffffffffffffffffffffff826102ad565b6102f486836102ad565b95508019841693508086168417925050509392505050565b6000819050919050565b6000819050919050565b600061033b6103366103318461030c565b610316565b61030c565b9050919050565b6000819050919050565b61035583610320565b61036961036182610342565b8484546102ba565b825550505050565b600090565b61037e610371565b61038981848461034c565b505050565b5b818110156103ad576103a2600082610376565b60018101905061038f565b5050565b601f8211156103f2576103c381610288565b6103cc8461029d565b810160208510156103db578190505b6103ef6103e78561029d565b83018261038e565b50505b505050565b600082821c905092915050565b6000610415600019846008026103f7565b1980831691505092915050565b600061042e8383610404565b9150826002028217905092915050565b610447826101ee565b67ffffffffffffffff8111156104605761045f6101f9565b5b61046a8254610257565b6104758282856103b1565b600060209050601f8311600181146104a85760008415610496578287015190505b6104a08582610422565b865550610508565b601f1984166104b686610288565b60005b828110156104de578489015182556001820191506020850194506020810190506104b9565b868310156104fb57848901516104f7601f891682610404565b8355505b6001600288020188555050505b505050505050565b61323d8061051f6000396000f3fe608060405234801561001057600080fd5b50600436106101205760003560e01c80637e844b21116100ad578063e985e9c511610071578063e985e9c514610342578063f242432a14610372578063f2fde38b1461038e578063f9643e4e146103aa578063fb2d49d7146103ca57610120565b80637e844b211461028957806387065540146102b95780638da5cb5b146102d8578063a22cb465146102f6578063d0023fcb1461031257610120565b80632eb2c2d6116100f45780632eb2c2d6146101d35780634e1273f4146101ef578063608c831d1461021f5780636ea12a5a1461024f578063715018a61461027f57610120565b8062fdd58e1461012557806301ffc9a7146101555780630e89341c1461018557806327ff6223146101b5575b600080fd5b61013f600480360381019061013a91906121a4565b6103e6565b60405161014c91906121f3565b60405180910390f35b61016f600480360381019061016a9190612266565b610440565b60405161017c91906122ae565b60405180910390f35b61019f600480360381019061019a91906122c9565b610522565b6040516101ac9190612386565b60405180910390f35b6101bd610553565b6040516101ca91906121f3565b60405180910390f35b6101ed60048036038101906101e891906125a5565b610558565b005b61020960048036038101906102049190612737565b610600565b604051610216919061286d565b60405180910390f35b6102396004803603810190610234919061288f565b610709565b604051610246919061286d565b60405180910390f35b610269600480360381019061026491906121a4565b6107a0565b60405161027691906121f3565b60405180910390f35b6102876107c5565b005b6102a3600480360381019061029e91906122c9565b6107d9565b6040516102b091906121f3565b60405180910390f35b6102c16107f1565b6040516102cf9291906128bc565b60405180910390f35b6102e0610914565b6040516102ed9190612902565b60405180910390f35b610310600480360381019061030b9190612949565b61093e565b005b61032c6004803603810190610327919061288f565b610954565b60405161033991906121f3565b60405180910390f35b61035c60048036038101906103579190612989565b61096c565b60405161036991906122ae565b60405180910390f35b61038c600480360381019061038791906129c9565b610a00565b005b6103a860048036038101906103a3919061288f565b610aa8565b005b6103b2610b2e565b6040516103c193929190612c4f565b60405180910390f35b6103e460048036038101906103df91906122c9565b610ddf565b005b600080600083815260200190815260200160002060008473ffffffffffffffffffffffffffffffffffffffff1673ffffffffffffffffffffffffffffffffffffffff16815260200190815260200160002054905092915050565b60007fd9b67a26000000000000000000000000000000000000000000000000000000007bffffffffffffffffffffffffffffffffffffffffffffffffffffffff1916827bffffffffffffffffffffffffffffffffffffffffffffffffffffffff1916148061050b57507f0e89341c000000000000000000000000000000000000000000000000000000007bffffffffffffffffffffffffffffffffffffffffffffffffffffffff1916827bffffffffffffffffffffffffffffffffffffffffffffffffffffffff1916145b8061051b575061051a826110f6565b5b9050919050565b606061052d82611160565b60405160200161053d9190612de1565b6040516020818303038152906040529050919050565b601981565b600061056261122e565b90508073ffffffffffffffffffffffffffffffffffffffff168673ffffffffffffffffffffffffffffffffffffffff16141580156105a757506105a5868261096c565b155b156105eb5780866040517fe237d9220000000000000000000000000000000000000000000000000000000081526004016105e2929190612e0e565b60405180910390fd5b6105f88686868686611236565b505050505050565b6060815183511461064c57815183516040517f5b059991000000000000000000000000000000000000000000000000000000008152600401610643929190612e37565b60405180910390fd5b6000835167ffffffffffffffff811115610669576106686123ad565b5b6040519080825280602002602001820160405280156106975781602001602082028036833780820191505090505b50905060005b84518110156106fe576106d46106bc828761132e90919063ffffffff16565b6106cf838761134290919063ffffffff16565b6103e6565b8282815181106106e7576106e6612e60565b5b60200260200101818152505080600101905061069d565b508091505092915050565b6060600760008373ffffffffffffffffffffffffffffffffffffffff1673ffffffffffffffffffffffffffffffffffffffff16815260200190815260200160002080548060200260200160405190810160405280929190818152602001828054801561079457602002820191906000526020600020905b815481526020019060010190808311610780575b50505050509050919050565b6005602052816000526040600020602052806000526040600020600091509150505481565b6107cd611356565b6107d760006113dd565b565b60046020528060005260406000206000915090505481565b606080601967ffffffffffffffff81111561080f5761080e6123ad565b5b60405190808252806020026020018201604052801561083d5781602001602082028036833780820191505090505b509150601967ffffffffffffffff81111561085b5761085a6123ad565b5b6040519080825280602002602001820160405280156108895781602001602082028036833780820191505090505b5090506000600190505b6019811161090f5780836001836108aa9190612ebe565b815181106108bb576108ba612e60565b5b6020026020010181815250506108d133826103e6565b826001836108df9190612ebe565b815181106108f0576108ef612e60565b5b602002602001018181525050808061090790612ef2565b915050610893565b509091565b6000600360009054906101000a900473ffffffffffffffffffffffffffffffffffffffff16905090565b61095061094961122e565b83836114a3565b5050565b60066020528060005260406000206000915090505481565b6000600160008473ffffffffffffffffffffffffffffffffffffffff1673ffffffffffffffffffffffffffffffffffffffff16815260200190815260200160002060008373ffffffffffffffffffffffffffffffffffffffff1673ffffffffffffffffffffffffffffffffffffffff16815260200190815260200160002060009054906101000a900460ff16905092915050565b6000610a0a61122e565b90508073ffffffffffffffffffffffffffffffffffffffff168673ffffffffffffffffffffffffffffffffffffffff1614158015610a4f5750610a4d868261096c565b155b15610a935780866040517fe237d922000000000000000000000000000000000000000000000000000000008152600401610a8a929190612e0e565b60405180910390fd5b610aa08686868686611613565b505050505050565b610ab0611356565b600073ffffffffffffffffffffffffffffffffffffffff168173ffffffffffffffffffffffffffffffffffffffff1603610b225760006040517f1e4fbdf7000000000000000000000000000000000000000000000000000000008152600401610b199190612902565b60405180910390fd5b610b2b816113dd565b50565b6060806060600060088054905090508067ffffffffffffffff811115610b5757610b566123ad565b5b604051908082528060200260200182016040528015610b855781602001602082028036833780820191505090505b5093508067ffffffffffffffff811115610ba257610ba16123ad565b5b604051908082528060200260200182016040528015610bd05781602001602082028036833780820191505090505b5092508067ffffffffffffffff811115610bed57610bec6123ad565b5b604051908082528060200260200182016040528015610c2057816020015b6060815260200190600190039081610c0b5790505b50915060005b81811015610dd857600060088281548110610c4457610c43612e60565b5b9060005260206000200160009054906101000a900473ffffffffffffffffffffffffffffffffffffffff16905080868381518110610c8557610c84612e60565b5b602002602001019073ffffffffffffffffffffffffffffffffffffffff16908173ffffffffffffffffffffffffffffffffffffffff1681525050600660008273ffffffffffffffffffffffffffffffffffffffff1673ffffffffffffffffffffffffffffffffffffffff16815260200190815260200160002054858381518110610d1257610d11612e60565b5b602002602001018181525050600760008273ffffffffffffffffffffffffffffffffffffffff1673ffffffffffffffffffffffffffffffffffffffff168152602001908152602001600020805480602002602001604051908101604052809291908181526020018280548015610da757602002820191906000526020600020905b815481526020019060010190808311610d93575b5050505050848381518110610dbf57610dbe612e60565b5b6020026020010181905250508080600101915050610c26565b5050909192565b60018110158015610df1575060198111155b610e30576040517f08c379a0000000000000000000000000000000000000000000000000000000008152600401610e2790612f86565b60405180910390fd5b610e4c338260016040518060200160405280600081525061171e565b600460008281526020019081526020016000206000815480929190610e7090612ef2565b9190505550600560003373ffffffffffffffffffffffffffffffffffffffff1673ffffffffffffffffffffffffffffffffffffffff16815260200190815260200160002060008281526020019081526020016000206000815480929190610ed690612ef2565b9190505550600660003373ffffffffffffffffffffffffffffffffffffffff1673ffffffffffffffffffffffffffffffffffffffff1681526020019081526020016000206000815480929190610f2b90612ef2565b9190505550600760003373ffffffffffffffffffffffffffffffffffffffff1673ffffffffffffffffffffffffffffffffffffffff168152602001908152602001600020819080600181540180825580915050600190039060005260206000200160009091909190915055600960003373ffffffffffffffffffffffffffffffffffffffff1673ffffffffffffffffffffffffffffffffffffffff16815260200190815260200160002060009054906101000a900460ff166110a3576001600960003373ffffffffffffffffffffffffffffffffffffffff1673ffffffffffffffffffffffffffffffffffffffff16815260200190815260200160002060006101000a81548160ff0219169083151502179055506008339080600181540180825580915050600190039060005260206000200160009091909190916101000a81548173ffffffffffffffffffffffffffffffffffffffff021916908373ffffffffffffffffffffffffffffffffffffffff1602179055505b803373ffffffffffffffffffffffffffffffffffffffff167fcc37b86956c1fc4c6eb17fa0f26e50b7de982d3c706296ea7c8a2896cf8190df60016040516110eb9190612feb565b60405180910390a350565b60007f01ffc9a7000000000000000000000000000000000000000000000000000000007bffffffffffffffffffffffffffffffffffffffffffffffffffffffff1916827bffffffffffffffffffffffffffffffffffffffffffffffffffffffff1916149050919050565b60606000600161116f846117b7565b01905060008167ffffffffffffffff81111561118e5761118d6123ad565b5b6040519080825280601f01601f1916602001820160405280156111c05781602001600182028036833780820191505090505b509050600082602083010190505b600115611223578080600190039150507f3031323334353637383961626364656600000000000000000000000000000000600a86061a8153600a858161121757611216613006565b5b049450600085036111ce575b819350505050919050565b600033905090565b600073ffffffffffffffffffffffffffffffffffffffff168473ffffffffffffffffffffffffffffffffffffffff16036112a85760006040517f57f447ce00000000000000000000000000000000000000000000000000000000815260040161129f9190612902565b60405180910390fd5b600073ffffffffffffffffffffffffffffffffffffffff168573ffffffffffffffffffffffffffffffffffffffff160361131a5760006040517f01a835140000000000000000000000000000000000000000000000000000000081526004016113119190612902565b60405180910390fd5b611327858585858561190a565b5050505050565b600060208202602084010151905092915050565b600060208202602084010151905092915050565b61135e61122e565b73ffffffffffffffffffffffffffffffffffffffff1661137c610914565b73ffffffffffffffffffffffffffffffffffffffff16146113db5761139f61122e565b6040517f118cdaa70000000000000000000000000000000000000000000000000000000081526004016113d29190612902565b60405180910390fd5b565b6000600360009054906101000a900473ffffffffffffffffffffffffffffffffffffffff16905081600360006101000a81548173ffffffffffffffffffffffffffffffffffffffff021916908373ffffffffffffffffffffffffffffffffffffffff1602179055508173ffffffffffffffffffffffffffffffffffffffff168173ffffffffffffffffffffffffffffffffffffffff167f8be0079c531659141344cd1fd0a4f28419497f9722a3daafe3b4186f6b6457e060405160405180910390a35050565b600073ffffffffffffffffffffffffffffffffffffffff168273ffffffffffffffffffffffffffffffffffffffff16036115155760006040517fced3e10000000000000000000000000000000000000000000000000000000000815260040161150c9190612902565b60405180910390fd5b80600160008573ffffffffffffffffffffffffffffffffffffffff1673ffffffffffffffffffffffffffffffffffffffff16815260200190815260200160002060008473ffffffffffffffffffffffffffffffffffffffff1673ffffffffffffffffffffffffffffffffffffffff16815260200190815260200160002060006101000a81548160ff0219169083151502179055508173ffffffffffffffffffffffffffffffffffffffff168373ffffffffffffffffffffffffffffffffffffffff167f17307eab39ab6107e8899845ad3d59bd9653f200f220920489ca2b5937696c318360405161160691906122ae565b60405180910390a3505050565b600073ffffffffffffffffffffffffffffffffffffffff168473ffffffffffffffffffffffffffffffffffffffff16036116855760006040517f57f447ce00000000000000000000000000000000000000000000000000000000815260040161167c9190612902565b60405180910390fd5b600073ffffffffffffffffffffffffffffffffffffffff168573ffffffffffffffffffffffffffffffffffffffff16036116f75760006040517f01a835140000000000000000000000000000000000000000000000000000000081526004016116ee9190612902565b60405180910390fd5b60008061170485856119bc565b91509150611715878784848761190a565b50505050505050565b600073ffffffffffffffffffffffffffffffffffffffff168473ffffffffffffffffffffffffffffffffffffffff16036117905760006040517f57f447ce0000000000000000000000000000000000000000000000000000000081526004016117879190612902565b60405180910390fd5b60008061179d85856119bc565b915091506117af60008784848761190a565b505050505050565b600080600090507a184f03e93ff9f4daa797ed6e38ed64bf6a1f0100000000000000008310611815577a184f03e93ff9f4daa797ed6e38ed64bf6a1f010000000000000000838161180b5761180a613006565b5b0492506040810190505b6d04ee2d6d415b85acef81000000008310611852576d04ee2d6d415b85acef8100000000838161184857611847613006565b5b0492506020810190505b662386f26fc10000831061188157662386f26fc10000838161187757611876613006565b5b0492506010810190505b6305f5e10083106118aa576305f5e10083816118a05761189f613006565b5b0492506008810190505b61271083106118cf5761271083816118c5576118c4613006565b5b0492506004810190505b606483106118f257606483816118e8576118e7613006565b5b0492506002810190505b600a8310611901576001810190505b80915050919050565b611916858585856119ec565b600073ffffffffffffffffffffffffffffffffffffffff168473ffffffffffffffffffffffffffffffffffffffff16146119b557600061195461122e565b905060018451036119a457600061197560008661134290919063ffffffff16565b9050600061198d60008661134290919063ffffffff16565b905061199d838989858589611d94565b50506119b3565b6119b2818787878787611f48565b5b505b5050505050565b60608060405191506001825283602083015260408201905060018152826020820152604081016040529250929050565b8051825114611a3657815181516040517f5b059991000000000000000000000000000000000000000000000000000000008152600401611a2d929190612e37565b60405180910390fd5b6000611a4061122e565b905060005b8351811015611c4f576000611a63828661134290919063ffffffff16565b90506000611a7a838661134290919063ffffffff16565b9050600073ffffffffffffffffffffffffffffffffffffffff168873ffffffffffffffffffffffffffffffffffffffff1614611ba757600080600084815260200190815260200160002060008a73ffffffffffffffffffffffffffffffffffffffff1673ffffffffffffffffffffffffffffffffffffffff16815260200190815260200160002054905081811015611b4f57888183856040517f03dee4c5000000000000000000000000000000000000000000000000000000008152600401611b469493929190613035565b60405180910390fd5b81810360008085815260200190815260200160002060008b73ffffffffffffffffffffffffffffffffffffffff1673ffffffffffffffffffffffffffffffffffffffff16815260200190815260200160002081905550505b600073ffffffffffffffffffffffffffffffffffffffff168773ffffffffffffffffffffffffffffffffffffffff1614611c42578060008084815260200190815260200160002060008973ffffffffffffffffffffffffffffffffffffffff1673ffffffffffffffffffffffffffffffffffffffff1681526020019081526020016000206000828254611c3a919061307a565b925050819055505b5050806001019050611a45565b506001835103611d0e576000611c6f60008561134290919063ffffffff16565b90506000611c8760008561134290919063ffffffff16565b90508573ffffffffffffffffffffffffffffffffffffffff168773ffffffffffffffffffffffffffffffffffffffff168473ffffffffffffffffffffffffffffffffffffffff167fc3d58168c5ae7397731d063d5bbf3d657854427343f4c083240f7aacaa2d0f628585604051611cff929190612e37565b60405180910390a45050611d8d565b8373ffffffffffffffffffffffffffffffffffffffff168573ffffffffffffffffffffffffffffffffffffffff168273ffffffffffffffffffffffffffffffffffffffff167f4a39dc06d4c0dbc64b70af90fd698a233a518aa5d07e595d983b8c0526c8f7fb8686604051611d849291906128bc565b60405180910390a45b5050505050565b60008473ffffffffffffffffffffffffffffffffffffffff163b1115611f40578373ffffffffffffffffffffffffffffffffffffffff1663f23a6e6187878686866040518663ffffffff1660e01b8152600401611df5959493929190613103565b6020604051808303816000875af1925050508015611e3157506040513d601f19601f82011682018060405250810190611e2e9190613172565b60015b611eb5573d8060008114611e61576040519150601f19603f3d011682016040523d82523d6000602084013e611e66565b606091505b506000815103611ead57846040517f57f447ce000000000000000000000000000000000000000000000000000000008152600401611ea49190612902565b60405180910390fd5b805160208201fd5b63f23a6e6160e01b7bffffffffffffffffffffffffffffffffffffffffffffffffffffffff1916817bffffffffffffffffffffffffffffffffffffffffffffffffffffffff191614611f3e57846040517f57f447ce000000000000000000000000000000000000000000000000000000008152600401611f359190612902565b60405180910390fd5b505b505050505050565b60008473ffffffffffffffffffffffffffffffffffffffff163b11156120f4578373ffffffffffffffffffffffffffffffffffffffff1663bc197c8187878686866040518663ffffffff1660e01b8152600401611fa995949392919061319f565b6020604051808303816000875af1925050508015611fe557506040513d601f19601f82011682018060405250810190611fe29190613172565b60015b612069573d8060008114612015576040519150601f19603f3d011682016040523d82523d6000602084013e61201a565b606091505b50600081510361206157846040517f57f447ce0000000000000000000000000000000000000000000000000000000081526004016120589190612902565b60405180910390fd5b805160208201fd5b63bc197c8160e01b7bffffffffffffffffffffffffffffffffffffffffffffffffffffffff1916817bffffffffffffffffffffffffffffffffffffffffffffffffffffffff1916146120f257846040517f57f447ce0000000000000000000000000000000000000000000000000000000081526004016120e99190612902565b60405180910390fd5b505b505050505050565b6000604051905090565b600080fd5b600080fd5b600073ffffffffffffffffffffffffffffffffffffffff82169050919050565b600061213b82612110565b9050919050565b61214b81612130565b811461215657600080fd5b50565b60008135905061216881612142565b92915050565b6000819050919050565b6121818161216e565b811461218c57600080fd5b50565b60008135905061219e81612178565b92915050565b600080604083850312156121bb576121ba612106565b5b60006121c985828601612159565b92505060206121da8582860161218f565b9150509250929050565b6121ed8161216e565b82525050565b600060208201905061220860008301846121e4565b92915050565b60007fffffffff0000000000000000000000000000000000000000000000000000000082169050919050565b6122438161220e565b811461224e57600080fd5b50565b6000813590506122608161223a565b92915050565b60006020828403121561227c5761227b612106565b5b600061228a84828501612251565b91505092915050565b60008115159050919050565b6122a881612293565b82525050565b60006020820190506122c3600083018461229f565b92915050565b6000602082840312156122df576122de612106565b5b60006122ed8482850161218f565b91505092915050565b600081519050919050565b600082825260208201905092915050565b60005b83811015612330578082015181840152602081019050612315565b60008484015250505050565b6000601f19601f8301169050919050565b6000612358826122f6565b6123628185612301565b9350612372818560208601612312565b61237b8161233c565b840191505092915050565b600060208201905081810360008301526123a0818461234d565b905092915050565b600080fd5b7f4e487b7100000000000000000000000000000000000000000000000000000000600052604160045260246000fd5b6123e58261233c565b810181811067ffffffffffffffff82111715612404576124036123ad565b5b80604052505050565b60006124176120fc565b905061242382826123dc565b919050565b600067ffffffffffffffff821115612443576124426123ad565b5b602082029050602081019050919050565b600080fd5b600061246c61246784612428565b61240d565b9050808382526020820190506020840283018581111561248f5761248e612454565b5b835b818110156124b857806124a4888261218f565b845260208401935050602081019050612491565b5050509392505050565b600082601f8301126124d7576124d66123a8565b5b81356124e7848260208601612459565b91505092915050565b600080fd5b600067ffffffffffffffff8211156125105761250f6123ad565b5b6125198261233c565b9050602081019050919050565b82818337600083830152505050565b6000612548612543846124f5565b61240d565b905082815260208101848484011115612564576125636124f0565b5b61256f848285612526565b509392505050565b600082601f83011261258c5761258b6123a8565b5b813561259c848260208601612535565b91505092915050565b600080600080600060a086880312156125c1576125c0612106565b5b60006125cf88828901612159565b95505060206125e088828901612159565b945050604086013567ffffffffffffffff8111156126015761260061210b565b5b61260d888289016124c2565b935050606086013567ffffffffffffffff81111561262e5761262d61210b565b5b61263a888289016124c2565b925050608086013567ffffffffffffffff81111561265b5761265a61210b565b5b61266788828901612577565b9150509295509295909350565b600067ffffffffffffffff82111561268f5761268e6123ad565b5b602082029050602081019050919050565b60006126b36126ae84612674565b61240d565b905080838252602082019050602084028301858111156126d6576126d5612454565b5b835b818110156126ff57806126eb8882612159565b8452602084019350506020810190506126d8565b5050509392505050565b600082601f83011261271e5761271d6123a8565b5b813561272e8482602086016126a0565b91505092915050565b6000806040838503121561274e5761274d612106565b5b600083013567ffffffffffffffff81111561276c5761276b61210b565b5b61277885828601612709565b925050602083013567ffffffffffffffff8111156127995761279861210b565b5b6127a5858286016124c2565b9150509250929050565b600081519050919050565b600082825260208201905092915050565b6000819050602082019050919050565b6127e48161216e565b82525050565b60006127f683836127db565b60208301905092915050565b6000602082019050919050565b600061281a826127af565b61282481856127ba565b935061282f836127cb565b8060005b8381101561286057815161284788826127ea565b975061285283612802565b925050600181019050612833565b5085935050505092915050565b60006020820190508181036000830152612887818461280f565b905092915050565b6000602082840312156128a5576128a4612106565b5b60006128b384828501612159565b91505092915050565b600060408201905081810360008301526128d6818561280f565b905081810360208301526128ea818461280f565b90509392505050565b6128fc81612130565b82525050565b600060208201905061291760008301846128f3565b92915050565b61292681612293565b811461293157600080fd5b50565b6000813590506129438161291d565b92915050565b600080604083850312156129605761295f612106565b5b600061296e85828601612159565b925050602061297f85828601612934565b9150509250929050565b600080604083850312156129a05761299f612106565b5b60006129ae85828601612159565b92505060206129bf85828601612159565b9150509250929050565b600080600080600060a086880312156129e5576129e4612106565b5b60006129f388828901612159565b9550506020612a0488828901612159565b9450506040612a158882890161218f565b9350506060612a268882890161218f565b925050608086013567ffffffffffffffff811115612a4757612a4661210b565b5b612a5388828901612577565b9150509295509295909350565b600081519050919050565b600082825260208201905092915050565b6000819050602082019050919050565b612a9581612130565b82525050565b6000612aa78383612a8c565b60208301905092915050565b6000602082019050919050565b6000612acb82612a60565b612ad58185612a6b565b9350612ae083612a7c565b8060005b83811015612b11578151612af88882612a9b565b9750612b0383612ab3565b925050600181019050612ae4565b5085935050505092915050565b600081519050919050565b600082825260208201905092915050565b6000819050602082019050919050565b600082825260208201905092915050565b6000612b66826127af565b612b708185612b4a565b9350612b7b836127cb565b8060005b83811015612bac578151612b9388826127ea565b9750612b9e83612802565b925050600181019050612b7f565b5085935050505092915050565b6000612bc58383612b5b565b905092915050565b6000602082019050919050565b6000612be582612b1e565b612bef8185612b29565b935083602082028501612c0185612b3a565b8060005b85811015612c3d5784840389528151612c1e8582612bb9565b9450612c2983612bcd565b925060208a01995050600181019050612c05565b50829750879550505050505092915050565b60006060820190508181036000830152612c698186612ac0565b90508181036020830152612c7d818561280f565b90508181036040830152612c918184612bda565b9050949350505050565b600081905092915050565b7f68747470733a2f2f7265642d726561736f6e61626c652d656c657068616e742d60008201527f34332e6d7970696e6174612e636c6f75642f697066732f62616679626569676d60208201527f74657261776f7a65747874756b3770796567356f6c696664676434727868697160408201527f797378676764326b736964776576716b6e342f00000000000000000000000000606082015250565b6000612d4e607383612c9b565b9150612d5982612ca6565b607382019050919050565b6000612d6f826122f6565b612d798185612c9b565b9350612d89818560208601612312565b80840191505092915050565b7f2e6a736f6e000000000000000000000000000000000000000000000000000000600082015250565b6000612dcb600583612c9b565b9150612dd682612d95565b600582019050919050565b6000612dec82612d41565b9150612df88284612d64565b9150612e0382612dbe565b915081905092915050565b6000604082019050612e2360008301856128f3565b612e3060208301846128f3565b9392505050565b6000604082019050612e4c60008301856121e4565b612e5960208301846121e4565b9392505050565b7f4e487b7100000000000000000000000000000000000000000000000000000000600052603260045260246000fd5b7f4e487b7100000000000000000000000000000000000000000000000000000000600052601160045260246000fd5b6000612ec98261216e565b9150612ed48361216e565b9250828203905081811115612eec57612eeb612e8f565b5b92915050565b6000612efd8261216e565b91507fffffffffffffffffffffffffffffffffffffffffffffffffffffffffffffffff8203612f2f57612f2e612e8f565b5b600182019050919050565b7f496e76616c69642073636f726500000000000000000000000000000000000000600082015250565b6000612f70600d83612301565b9150612f7b82612f3a565b602082019050919050565b60006020820190508181036000830152612f9f81612f63565b9050919050565b6000819050919050565b6000819050919050565b6000612fd5612fd0612fcb84612fa6565b612fb0565b61216e565b9050919050565b612fe581612fba565b82525050565b60006020820190506130006000830184612fdc565b92915050565b7f4e487b7100000000000000000000000000000000000000000000000000000000600052601260045260246000fd5b600060808201905061304a60008301876128f3565b61305760208301866121e4565b61306460408301856121e4565b61307160608301846121e4565b95945050505050565b60006130858261216e565b91506130908361216e565b92508282019050808211156130a8576130a7612e8f565b5b92915050565b600081519050919050565b600082825260208201905092915050565b60006130d5826130ae565b6130df81856130b9565b93506130ef818560208601612312565b6130f88161233c565b840191505092915050565b600060a08201905061311860008301886128f3565b61312560208301876128f3565b61313260408301866121e4565b61313f60608301856121e4565b818103608083015261315181846130ca565b90509695505050505050565b60008151905061316c8161223a565b92915050565b60006020828403121561318857613187612106565b5b60006131968482850161315d565b91505092915050565b600060a0820190506131b460008301886128f3565b6131c160208301876128f3565b81810360408301526131d3818661280f565b905081810360608301526131e7818561280f565b905081810360808301526131fb81846130ca565b9050969550505050505056fea2646970667358221220c4ba3656c4e3dd29d4ab3a7aef616485a70d4836e3f1e74313d7d9646d1e9e8564736f6c634300081e0033",
  "linkReferences": {},
  "deployedLinkReferences": {}
}